:020000040800F2
:10000000900A002031020008390200083B02000873
:100010003D0200083F020008410200080000000005
:100020000000000000000000000000004302000883
:1000300045020008000000004702000849020008CD
:100040004B0200084B0200084B0200084B0200085C
:100050004B0200084B0200084B0200084B0200084C
:100060004B0200084B0200084B0200084B0200083C
:100070004B0200084B0200084B0200084B0200082C
:100080004B0200084B0200084B0200084B0200081C
:100090004B0200084B0200084B0200084B0200080C
:1000A0004B0200084B0200084B0200084B020008FC
:1000B0004B0200084B0200084B0200084B020008EC
:1000C0004B0200084B0200084B0200084B020008DC
:1000D0004B0200084B0200084B0200084B020008CC
:1000E0004B0200084B0200084B0200084B020008BC
:1000F0004B0200084B0200084B0200084B020008AC
:100100004B0200084B0200084B0200084B0200089B
:100110004B0200084B0200084B0200084B0200088B
:100120004B0200084B0200084B0200084B0200087B
:100130004B0200084B0200084B0200084B0200086B
:100140004B0200084B0200084B0200084B0200085B
:100150004B0200084B0200084B0200084B0200084B
:100160004B0200084B0200084B0200084B0200083B
:100170004B0200084B0200084B0200080000000080
:100180004B0200084B02000800F002F800F041F8B2
:100190000AA090E8000C82448344AAF10107DA45E2
:1001A00001D100F036F8AFF2090EBAE80F0013F0F3
:1001B000010F18BFFB1A43F00103184794620000B7
:1001C000B4620000103A24BF78C878C1FAD8520748
:1001D00024BF30C830C144BF04680C6070470000C1
:1001E0000023002400250026103A28BF78C1FBD840
:1001F000520728BF30C148BF0B607047692900F023
:100200007F80002070471FB500F013FF1FBD10B5A1
:1002100010BD00F07BF91146FFF7F5FF00F0A6FDD9
:1002200000F099F903B4FFF7F2FF03BC00F0A0F966
:100230000948804709480047FEE7FEE7FEE7FEE77A
:10024000FEE7FEE7FEE7FEE7FEE7FEE704480549B6
:10025000054A064B70470000F90A000889010008AA
:1002600090040020900A00209006002090060020B4
:100270000FB41CB5074B06AA7B446946009005984D
:1002800000F0E3F80020694600F0F2F81CBC5DF8CD
:1002900014FB0000F50100002DE9F0410E46044674
:1002A000002020622046E168884730B3252805D029
:1002B000D4E901219047206A401CF2E7E16820461A
:1002C00000278847050018D0A5F14100192802D859
:1002D00020354FF400673246294620462760FFF755
:1002E0008DFF40B1012804D0F61D26F00706083620
:1002F000D8E7361DD6E72846DAE7206ABDE8F08160
:100300002DE9F0410646002410687529314616A5EE
:1003100010D0AFF30080002802DA404213A507E0B6
:1003200031688A0701D512A502E0490704D511A555
:10033000012401E0AFF3008000210A2206F1240726
:1003400009E0B0FBF2FCB0FBF2F302FB1C00303022
:1003500078541846491C0028F3D123462A463046D3
:10036000BDE8F04100F013B8000000002D000000CF
:100370002B0000002000000002F0FF0343EA0322EC
:1003800042EA024200F07BB87047704770472DE99F
:10039000F0470D4699469246044600F1240801684C
:1003A000880604D5E06921F01001216000E00120F9
:1003B000A84201DD471B00E00027A1697A1902EB82
:1003C0000900081AA0612078C00602D42046AFF3C5
:1003D0000080002608E0D4E901211AF806009047C1
:1003E000206A401C761C20624E45F4DB2078C00653
:1003F0000AD52046AFF3008006E0D4E90121302081
:100400009047206A401C2062381EA7F10107F4DCE7
:1004100007E0D4E9012118F805009047206A401C44
:100420002062281EA5F10105F3DC2046AFF3008011
:100430002078000602D50220BDE8F0870120FBE706
:1004400001694A1C02610878704700B58FB0CDE998
:1004500001310021059105497944CDE90310114688
:100460006846FFF719FF0FB000BD0000E5FFFFFF72
:100470000A6802F8010B0A6070474FF00002042975
:10048000C0F0128010F0030C00F01B80CCF1040CC3
:10049000BCF1020F18BF00F8012BA8BF20F8022BF7
:1004A000A1EB0C0100F00DB85FEAC17C24BF00F89D
:1004B000012B00F8012B48BF00F8012B70474FF0CB
:1004C000000200B5134694469646203922BFA0E8A4
:1004D0000C50A0E80C50B1F12001BFF4F7AF0907B0
:1004E00028BFA0E80C5048BF0CC05DF804EB8900A1
:1004F00028BF40F8042B08BF704748BF20F8022BE4
:1005000011F0804F18BF00F8012B7047754600F0BE
:100510002BF8AE4605006946534620F00700854695
:1005200018B020B5FFF792FEBDE820404FF000065E
:100530004FF000074FF000084FF0000B21F00701CB
:10054000AC46ACE8C009ACE8C009ACE8C009ACE80E
:10055000C0098D46704710B50446AFF300802046B1
:10056000BDE81040FFF75EBE004870472C04002035
:1005700001491820ABBEFEE726000200704710B507
:10058000002000F091F800F093FA10BD2DE9F84F2B
:1005900080460D4691461E46DDF828B0F01DC11775
:1005A00000EB5171C91009B200914FF0000A002709
:1005B00026E000241EE004F0070020B14FEA4A6064
:1005C0004FEA106A09E02046E11704EB5171CA10A6
:1005D000009907FB012119F801A00AF0800038B149
:1005E0000B9BDAB2A9B208EB040398B200F00CF846
:1005F000601C04B2B442DEDB781C07B2681C05B292
:100600005F45D6DBBDE8F88FF0B503461446802B76
:1006100001DA402900DBF0BD2148007920B10CB996
:10062000012000E000200446012C1CD1CD1701EB75
:100630005575ED1003EBC5151A4E755D0A46CE17BC
:1006400001EB5676F610A1EBC6070126BE403543F6
:10065000EEB20846CD1701EB5575ED1003EBC5154D
:10066000104F7E551AE0CD1701EB5575ED1003EBD9
:10067000C5150C4E755D0A46CE1701EB5676F61081
:10068000A1EBC6070126BE40B5430846CE1701EBD5
:100690005676F61003EBC616024FBD5500BFBAE7FB
:1006A000000000202A00002010B504460CB90020EC
:1006B00000E0FF2002464FF480610248FFF75CFE35
:1006C00010BD00002A000020014A108051807047B0
:1006D0000000002010B500F0B5FA00F089FC40F6EB
:1006E000C41400E0641E002CFCD1AE2200213C208A
:1006F00000F0ECFA202200213C2000F0E7FA102262
:1007000000213C2000F0E2FAB02200213C2000F061
:10071000DDFAC82200213C2000F0D8FA0022114660
:100720003C2000F0D3FA102200213C2000F0CEFA49
:10073000402200213C2000F0C9FA812200213C2007
:1007400000F0C4FAFF2200213C2000F0BFFAA122F1
:1007500000213C2000F0BAFAA62200213C2000F043
:10076000B5FAA82200213C2000F0B0FA3F22002177
:100770003C2000F0ABFAA42200213C2000F0A6FAB5
:10078000D32200213C2000F0A1FA002211463C2097
:1007900000F09CFAD52200213C2000F097FAF022CC
:1007A00000213C2000F092FAD92200213C2000F0E8
:1007B0008DFA222200213C2000F088FADA22002162
:1007C0003C2000F083FA122200213C2000F07EFA47
:1007D000DB2200213C2000F079FA202200213C207D
:1007E00000F074FA8D2200213C2000F06FFA1422F0
:1007F00000213C2000F06AFAAF2200213C2000F0EA
:1008000065FA2E2200213C2000F060FA0020FFF75C
:100810004BFF00F04DF9002002490880488001207C
:10082000487110BD0000002010B504462CB1A7226D
:1008300000213C2000F04AFA04E0A62200213C20DE
:1008400000F044FA10BD00002DE9F04307460C46C5
:1008500090462648008821780844802805DA2348F5
:10086000408861780844402802DB0020BDE8F0831E
:10087000002530E0A7F12000617800FB015061689D
:1008800031F81090002622E009FA06F000F400404A
:1008900058B1164A52882A4491B2144A12883244F6
:1008A00090B24246FFF7B0FE10E0B8F1000F01D160
:1008B000012300E000231A460C4B5B882B4499B2BD
:1008C0000A4B1B88334498B2FFF79EFE761C2078B3
:1008D000B042D9D86D1C6078A842CBD803480088B4
:1008E00021780844014908803846BFE7000000200D
:1008F00070B504460D4616460AE020783246294671
:10090000FFF7A2FF2178884201D0207870BD641CD7
:1009100020780028F1D12078F8E770B504460D461C
:10092000272200213C2000F0D1F9002211463C2072
:1009300000F0CCF9224600213C2000F0C7F900224B
:1009400011463C2000F0C2F92A4600213C2000F06C
:10095000BDF9002211463C2000F0B8F9FF22002129
:100960003C2000F0B3F92F2200213C2000F0AEF92A
:1009700070BD70B504460D46262200213C2000F0D3
:10098000A5F9002211463C2000F0A0F922460021E2
:100990003C2000F09BF9002211463C2000F096F923
:1009A0002A4600213C2000F091F9002211463C200B
:1009B00000F08CF9FF2200213C2000F087F92F2263
:1009C00000213C2000F082F970BD70B504460D4650
:1009D000A32200213C2000F079F9002211463C209E
:1009E00000F074F9402200213C2000F06FF92A2227
:1009F00000213C2000F06AF9002211463C2000F062
:100A000065F9224600213C2000F060F900221146E1
:100A10003C2000F05BF92A4600213C2000F056F90A
:100A2000012200213C2000F051F92F2200213C201E
:100A300000F04CF970BD70B504460D46A3220021AC
:100A40003C2000F043F9002211463C2000F03EF922
:100A5000402200213C2000F039F9292200213C20CD
:100A600000F034F9002211463C2000F02FF9224614
:100A700000213C2000F02AF9002211463C2000F021
:100A800025F92A4600213C2000F020F9012200210E
:100A90003C2000F01BF92F2200213C2000F016F929
:100AA00070BD10B52E2200213C2000F00FF910BDC2
:100AB00010B500241BE004F1B000C2B200213C20BC
:100AC00000F004F9002211463C2000F0FFF810224B
:100AD00000213C2000F0FAF80648802101FB0402C6
:100AE0000B4640213C2000F08BFA601CC4B2082C5D
:100AF000E1DB10BD2A0000201448006840F47000BB
:100B0000124908601248006840F00100104908606E
:100B100000200F49083108600D4800680D49084061
:100B20000B4908600C48091D0860081F006820F484
:100B30008020091F0860002005490C3108604FF033
:100B400000600249803908607047000088ED00E0CD
:100B500000380240FFFFF6FE1030002443F67F61AC
:100B60004FF0E022516100219161052111610021C6
:100B700008E000BF4FF0E022126902F48032002A40
:100B8000F8D0491C8142F4DB00214FF0E0221161D2
:100B90007047000078B5044600BF2948006800F09F
:100BA00002000028F9D126481838006840F4807007
:100BB000234D183D286000BF2148001F006800F049
:100BC00001000028F8D060001D4D083D286000BFDE
:100BD0001B48001F006800F002000028F8D01848E9
:100BE0000068009000BF1648001F006800F08000F9
:100BF0000028F8D012480838016000BF1048001FD4
:100C0000006800F080000028F8D000200DE0155C9E
:100C10000B4E083E356000BF094D2D1F2D6805F0B5
:100C20000405002DF8D0451CE8B29842EFDB0448DB
:100C30001838006840F40070014D183D286078BDF8
:100C4000185400401E48006840F002001C4908602B
:100C50001B481030006840F400101949103108603A
:100C60001848006840F42020164908600846406A89
:100C700040F0440113484162001D006840F4407098
:100C80001049091D08604FF400400F4908600846EC
:100C9000006820F400400860081D006840F0100063
:100CA000091D0860502008491C3108601120091DE9
:100CB00008600548006840F001000349086070477B
:100CC00030380240000402400054004018B500BF14
:100CD000254B1B6803F00203002BF9D1224B183B74
:100CE0001B6843F48073204C183C236000BF1E4BEC
:100CF0001B1F1B6803F00103002BF8D043001A4CA4
:100D0000083C236000BF184B1B1F1B6803F0020345
:100D1000002BF8D0144B1B68009300BF124B1B1F15
:100D20001B6803F08003002BF8D00F4B083B1960C1
:100D300000BF0D4B1B1F1B6803F08003002BF8D076
:100D4000094B083B1A6000BF074B1B1F1B6803F0D1
:100D50000403002BF8D0044B183B1B6843F40073CA
:100D6000014C183C236018BD185400401CB5FFF717
:100D7000B1FC00210846FFF7A7FC0122864987A0A5
:100D8000FFF7B6FD1E210A20FFF79EFC01228249D3
:100D900084A0FFF7ADFDFFF78BFE4FF4FA60FFF77D
:100DA000DDFE07210020FFF7E4FD4FF4FA60FFF7B6
:100DB000D5FE07210020FFF7B0FD4FF4FA60FFF7E2
:100DC000CDFEFFF76EFEFFF7DAFB4FF4FA60FFF798
:100DD000C5FE0F210020FFF7CCFD4FF4FA60FFF7AE
:100DE000BDFE0F210020FFF798FD4FF4FA60FFF7DA
:100DF000B5FE0F210020FFF71EFE4FF4FA60FFF74B
:100E0000ADFE0F210020FFF7E0FD4FF4FA60FFF781
:100E1000A5FEFFF746FE0120FFF706FD4FF4FA603E
:100E2000FFF79CFE0020FFF7FFFC4FF4FA60FFF78E
:100E300095FEFFF7A4FB00210846FFF745FC0122C1
:100E400055495CA0FFF754FDFFF732FE002413E084
:100E500022465BA15B48FFF70BFA1E210A20FFF731
:100E600033FC01224C495748FFF742FDFFF720FEB3
:100E70006420FFF773FE641C642CE9DB8BE0FFF752
:100E80007EFB0120402180234F4ACDE90010002144
:100E90000846FFF77BFBFFF70BFEFFF770FB012017
:100EA00040218023494ACDE9001000210846FFF780
:100EB0006DFBFFF7FDFDFFF762FB01204021802362
:100EC000434ACDE9001000210846FFF75FFBFFF71A
:100ED000EFFDFFF754FB0120402180233D4ACDE97F
:100EE000001000210846FFF751FBFFF7E1FDFFF777
:100EF00046FB012040218023374ACDE90010002124
:100F00000846FFF743FBFFF7D3FDFFF738FB01204F
:100F100040218023314ACDE9001000210846FFF727
:100F200035FBFFF7C5FDFFF72AFB01204021802399
:100F30002B4ACDE9001000210846FFF727FBFFF7F9
:100F4000B7FDFFF71CFB012040218023254ACDE996
:100F5000001000210846FFF719FBFFF7A9FDFFF776
:100F60000EFB0120402180231F4ACDE90010002103
:100F70000846FFF70BFBFFF79BFDFFF700FB012087
:100F800040218023194ACDE9001000210846FFF7CF
:100F9000FDFAFFF78DFD72E71000002053544D332A
:100FA00032000000646576656C6F706572733A2973
:100FB000000000007661726961626C6500000000EB
:100FC00025690000200000203C1400083C1800089F
:100FD0003C1C00083C2000083C2400083C28000879
:100FE0003C2C00083C3000083C3400083C38000829
:100FF000024800E0401E0028FCD1704790D003005A
:101000002DE9F041C0B00746884616461D4600242B
:1010100004E0305D0DF80400601CC4B2AC42F8DBA3
:10102000EBB2324641463846FFF7B4FD40B0BDE86A
:10103000F0814FF04070E1EE100A704700000000B0
:1010400000000000000000000000000000000000A0
:101050000000000000003FC0000000000000000091
:101060000000000000007FE0000000000000000021
:1010700000000001C000FFF00000000000000000C0
:101080000000007FFF00FFF00000000000000000F3
:10109000000001E001E1FFF8000000000000000096
:1010A00000000F000031FFF8000000000000000009
:1010B00000001E000011FFF800000000000000000A
:1010C00000007FE003F9FFF00000000000000000D6
:1010D0000000F03C1F00FFF00000000000000000D6
:1010E0000001C007F000FFF0000000000000000059
:1010F0000003C003E0007FE00000000000000000EB
:101100000006600770001F80000000000000000063
:10111000000E300C1C000000000000000000000069
:10112000000E18380600000000000000000000005B
:10113000001C0C7003001000000000000000000004
:10114000001C07C001C01E000000000000000000DD
:101150000034038000601B0000000000000000005D
:101160000024038000301B0000000000000000008D
:10117000006606E0001811000000000000000000FA
:1011800000660C70000C11800000000000000000E0
:101190000042183800043180000000000000000008
:1011A0000043300C0006308000000000000000000A
:1011B00000C32006000320800000000000000000A3
:1011C00000C1E0030001E08000000000000000001A
:1011D00000C1C0018000C0800000000000000000CD
:1011E00000C0C000C000C08000000000000000007F
:1011F00000C1C0006001C0800000000000000000CD
:1012000000C1E0003001E0800000000000000000AC
:1012100000C3300018032080000000000000000020
:10122000004310000C0631800000000000000000A8
:1012300000421800060C3180000000000000000091
:1012400000660C0003981180000000000000000000
:101250000066060001F01900000000000000000018
:101260000024030000F01B0000000000000000004C
:101270000034018000F01A000000000000000000AF
:10128000001C00E001981E000000000000000000AB
:1012900000000070030C1C000000000000000000B3
:1012A000000000180E061C000000000000000000F6
:1012B0000000000E180318000000000000000000ED
:1012C00000FE0003F001B00000000000000000007C
:1012D00001FF8003E000E0000000000000000000CB
:1012E00003FF800F7800C000000000000000000035
:1012F00007FFC0FC0FCF80000000000000000000CE
:1013000007FFC7C001FF0000000000000000000050
:1013100007FFC600001C00000000000000000000E5
:1013200007FFC780007800000000000000000000F8
:1013300007FFC1F007C0000000000000000000002F
:1013400007FFC03FFE00000000000000000000009A
:1013500003FF80000000000000000000000000000B
:1013600001FF00000000000000000000000000007D
:10137000007E0000000000000000000000000000EF
:10138000000000000000000000000000000000005D
:101390000000000000000000000000000F0F8C277C
:1013A000F7E1F0C181F9F0FBF9F0F18C1939CE21A8
:1013B000C63398C181819980E181918C3030CF20F2
:1013C00086330CC181818D804103018C30304F20E8
:1013D00086320CC181F198F041F301FC30304DE0D0
:1013E00087E20CC18181F018438301FC3030CCE0EE
:1013F00086630CC18181B00C4103018C1D9FCC60C0
:101400008663F8FDF9F999D841F1D98C0F0F0C20BA
:101410008630F0FDF9F98CF041F0F18C000000000D
:1014200000000000000000000000000000000000BC
:1014300000000000000000000000000000000000AC
:10144000000000000000000000000000000000009C
:10145000000000000000000000000000000000008C
:10146000000000000000000000000000000000007C
:10147000000000000000000000000000000000006C
:10148000000000000000000000000000000000005C
:10149000000000000000000000000000000000004C
:1014A000000000000000000000000000000000003C
:1014B000000000000000000000000000000000002C
:1014C000000000000000000000000000000000001C
:1014D000000000000000000000000000000000000C
:1014E00000000000000000000000000000000000FC
:1014F00000000000000000000000000000000000EC
:1015000000000000000000000000000000000000DB
:101510003FF8600000000000000000000000001F15
:10152000FFFFF00000000000000000000000007F4E
:10153000FFFFC0000000000000000000000005FFE9
:10154000FFFFE400000000000000000000000FFFAB
:10155000FFFF8000000000000000000000000F00FE
:101560000FFF000000000000000000000000060067
:1015700000FF800000000000000000000000186074
:10158000001FF800000000000000000000003C7890
:101590000007800000000000000000000000306E26
:1015A0000000000000000000000000000000507378
:1015B000800000000000000000000000000080002B
:1015C000C00005FF0037F000001F80000001000090
:1015D000FC0000000007FF8003F03000000008005E
:1015E000380000000000BFFFFFE004000001900091
:1015F00060000000000087FFFFFE00000001E00027
:1016000060000000000001FFFFFFC000000040007C
:10161000600600000000001FFC0008000000000041
:10162000E006000010008000000000000000000044
:101630006006000030018000000000000000000093
:1016400070060000300700000000000000000000ED
:101650007FC60000E00F0000000000000000000F47
:1016600081CC0010E0380000000000000000000FF6
:10167000C008860000600000000000000000001F9D
:10168000F620000021C00000000000000000001F44
:10169000C000000000000000000000000000003E4C
:1016A000000000000401000000000000000000F83D
:1016B000000000004800000000000000000001F0F1
:1016C0000000000070000000000000000000072083
:1016D00000000000F00078000000000000003C382E
:1016E00000000000F00078000000000000007830EA
:1016F00000000001C0007800000000000001E000D0
:101700000000000380007000000000000003C00023
:101710000000000600007000000000000000000053
:101720000000001C0000300000000000000000006D
:101730000000003C0000300000000000000000003D
:1017400000000078000070000000000000000000B1
:10175000000001E00000F0000000000000000000B8
:10176000000003C00003F0000000000000000000C3
:1017700000000600000780000000000000000000DC
:101780000000000000000000000000000000000059
:101790000000000000000000000000000000000049
:1017A0000000000000000000000000000000000039
:1017B0000000000000000000000000000000000029
:1017C0000000000000000000000000000000000019
:1017D0000000000000000000000000000000000009
:1017E00000000000000000000000000000000000F9
:1017F00000000000000000000000000000000000E9
:1018000000000000000000000000000000000000D8
:1018100000000000000000000000000000000000C8
:1018200000000000000000000000000000000000B8
:1018300000000000000000000000000000000000A8
:101840000000000000000000000000000000000098
:101850000000000000000000000000000000000088
:101860000000000000000000000000000000000078
:101870000000000000000000000000000000000068
:101880000000000000000000000000000000000058
:101890000000000000000000000000000000000048
:1018A0000000000000000000000000000000000038
:1018B0000000000000000000000000000000000028
:1018C0000000000000000000000000000000000018
:1018D0000000000000000000000000000000000008
:1018E00000000000000000000000000000000000F8
:1018F00000000000000000000000000000000000E8
:1019000000000000000000000000000000000000D7
:101910003FF8600000000000000000000000001F11
:10192000FFFFF00000000000000000000000007F4A
:10193000FFFFC0000000000000000000000005FFE5
:10194000FFFFE400000000000000000000000FFFA7
:10195000FFFF8000000000000000000000000F00FA
:101960000FFF000000000000000000000000060063
:1019700000FF800000000000000000000000186070
:10198000001FF800000000000000000000003C788C
:101990000007800000000000000000000000306E22
:1019A0000000000000000000000000000000507374
:1019B0008000000000000000000000000000800027
:1019C000C00005FF0037F000001F8000000100008C
:1019D000FC0000000007FF8003F03000000008005A
:1019E000380000000000BFFFFFE00400000190008D
:1019F00060000000000087FFFFFE00000001E00023
:101A000060000000000001FFFFFFC0000000400078
:101A1000600600000000001FFC000800000000003D
:101A2000E006000010008000000000000000000040
:101A3000600600003001800000000000000000008F
:101A400070060000300700000000000000000000E9
:101A50007FC60000E00F0000000000000000000F43
:101A600081CC0010E0380000000000000000000FF2
:101A7000C008860000600000000000000000001F99
:101A8000F620000021C00000000000000000001F40
:101A9000C000000000000000000000000000003E48
:101AA000000000000401000000000000000000F839
:101AB000000000004800000000000000000001F0ED
:101AC000000000007000000000000000000007207F
:101AD00000000000F00078000000000000003C382A
:101AE00000000000F00078000000000000007830E6
:101AF00000000001C0007800000000000001E000CC
:101B00000000000380007000000000000003C0001F
:101B1000000000060000700000000000000000004F
:101B20000000001C00003000000000000000000069
:101B30000000003C00003000000000000000000039
:101B400000000078000070000000000000000000AD
:101B5000000001E00000F0000000000000000000B4
:101B6000000003C00003F0000000000000000000BF
:101B700000000600000780000000000000000000D8
:101B80000000000000000000000000000000000055
:101B90000000000000000000000000000000000045
:101BA0000000000000000000000000000000000035
:101BB0000000000000000000000000000000000025
:101BC0000000000000000000000000000000000015
:101BD0000000000000000000000000000000000005
:101BE00000000000000000000000000000000000F5
:101BF00000000000000000000000000000000000E5
:101C000000000000000000000000000000000000D4
:101C100000000000000000000000000000000000C4
:101C200000000000000000000000000000000000B4
:101C300000000000000000000000000000000000A4
:101C40000000000000000000000000000000000094
:101C50000000000000000000000000000000000084
:101C60000000000000000000000000000000000074
:101C70000000000000000000000000000000000064
:101C80000000000000000000000000000000000054
:101C90000000000000000000000000000000000044
:101CA0000000000000000000000000000000000034
:101CB0000000000000000000000000000000000024
:101CC0000000000000000000000000000000000014
:101CD0000000000000000000000000000000000004
:101CE00000000000000000000000000000000000F4
:101CF00000000000000000000000000000000000E4
:101D000000000000000000000000000000000000D3
:101D100000060000000000000000000000000000BD
:101D20000FFFB00000000000000000000000007F76
:101D3000FFFC00000000000000000000000001FFA8
:101D4000FFF81FC0000000000000000000000FFFAF
:101D5000FFFFF800000000000000000000001FE08E
:101D60001FFFC000000000000000000000001E83F4
:101D7000887F8000000000000000000000003C00A0
:101D8000000FF00000000000000000000000F8FA62
:101D90000003870000000000000000000000F8FEC3
:101DA0000000C00000000000000000000001E0E7AB
:101DB00006003000000000000000FF0000010003EA
:101DC000CE0007800FF7FFF0000FFC0000020200BA
:101DD000DC00007FC007FFFFF1FF80000004180057
:101DE000780000000000DFFFFFFC0000000740005B
:101DF00030000000000043FFFFF000000003C000BF
:101E0000200004001800603FFF80000000018000F7
:101E10005FFFFF00187FA003E0000000000000004B
:101E20007FEFFF801CFFA00000000000000000000A
:101E3000601C00000C0060000000000000000000BA
:101E40003F1800000E00E000000000000000003F0E
:101E5000C03800000601E00000000000000000782B
:101E6000003C0005FE21A00000000000000000E38F
:101E7000FCA3E7F01FFFD00000000000000001807D
:101E80003F801800018308000000000000000300EC
:101E90004200000000C306000000000000000F0028
:101EA000C40000000023FCF00000000000001E0041
:101EB00090000000001103F00000000000001C0171
:101EC00020000000000D00F80000000000007C0170
:101ED0008000000000078038000000000000700350
:101EE000800000000007C01800000000000000078C
:101EF000000000000007C00C000000000000000E01
:101F0000000000000007C00C000000000000001CE2
:101F1000000000000007800E0000000000000038F4
:101F2000000000000007000E00000000000000702C
:101F300000000000000E000E00000000000001E0A4
:101F400000000000001E000E0000000000000780DE
:101F500000000000003C001E000000000000000027
:101F60000000000001FC003E000000000000000036
:101F7000000000000F80003800000000000000009A
:101F8000000000001F000000000000000000000032
:101F90000000000000000000000000000000000041
:101FA0000000000000000000000000000000000031
:101FB0000000000000000000000000000000000021
:101FC0000000000000000000000000000000000011
:101FD0000000000000000000000000000000000001
:101FE00000000000000000000000000000000000F1
:101FF00000000000000000000000000000000000E1
:1020000000000000000000000000000000000000D0
:1020100000000000000000000000000000000000C0
:1020200000000000000000000000000000000000B0
:1020300000000000000000000000000000000000A0
:102040000000000000000000000000000000000090
:102050000000000000000000000000000000000080
:102060000000000000000000000000000000000070
:102070000000000000000000000000000000000060
:102080000000000000000000000000000000000050
:102090000000000000000000000000000000000040
:1020A0000000000000000000000000000000000030
:1020B0000000000000000000000000000000000020
:1020C0000000000000000000000000000000000010
:1020D0000000000000000000000000000000000000
:1020E00000000000000000000000000000000000F0
:1020F00000000000000000000000000000000000E0
:1021000000000000000000000000000000000000CF
:1021100000000000000000000000000000000000BF
:102120000000000000000000000000000000007F30
:10213000F01DC000000000000000000000001FFFB4
:10214000FFFF0000000000000000000000001FFF73
:10215000FFFFF000000000000000000000001F80F2
:102160003FFFFFC0000000000000000000001E83D1
:1021700088FFE0000000000000000000000078C0C0
:10218000001FF80000000000000000000000F1E265
:102190000003E60000000000000000000001F1F86C
:1021A0000000600000000000000000000003418FFC
:1021B0000C001800000000000000000000060003F2
:1021C0008C0007800001FFFF80000800000C020067
:1021D000F800000FC03FFFFFF0183000000E400075
:1021E000300000000000FFFFFFE1C000000F800092
:1021F0003000000000003FFFFFFF004000078000AC
:10220000200004000000103FFFFE1E000000000040
:102210005FFDFF00007FF000FFFFE0000000000016
:102220007FEFFF8000FFF0000000000000000000D2
:10223000401C000000001000000000000000000032
:10224000701800000180180000000000000000006D
:102250006030000001801800000000000000000154
:10226000807E0000F1C01C0000000000000000079C
:10227000FFFDF5FE0FFFEE0000000000000000284B
:10228000FBE80E0000100F80000000000000007E40
:1022900001080000000C070E00000000000001E033
:1022A00001100000000303FF000000000000070011
:1022B00001100000000041CF0000000000003C00C1
:1022C00001900000000011E3800000000001F80010
:1022D00000A00000000007E1C00000000007E000CF
:1022E00000E00000000003E0E0000000001F00002C
:1022F00000E00000000001E07000000000000000AD
:1023000000E00000000000E03C00000000000000D1
:1023100000C00000000000E00FC00000000000004E
:1023200000C00000000000E007E000000000000026
:10233000008000000000007000E0000000000000CD
:10234000018000000000007000000000000000009C
:102350000180000000000078000000000000000084
:1023600003800000000003C0000000000000000027
:102370001F00000000000F0000000000000000002F
:102380003E00000000001F000000000000000000F0
:10239000000000000000000000000000000000003D
:1023A000000000000000000000000000000000002D
:1023B000000000000000000000000000000000001D
:1023C000000000000000000000000000000000000D
:1023D00000000000000000000000000000000000FD
:1023E00000000000000000000000000000000000ED
:1023F00000000000000000000000000000000000DD
:1024000000000000000000000000000000000000CC
:1024100000000000000000000000000000000000BC
:1024200000000000000000000000000000000000AC
:10243000000000000000000000000000000000009C
:10244000000000000000000000000000000000008C
:10245000000000000000000000000000000000007C
:10246000000000000000000000000000000000006C
:10247000000000000000000000000000000000005C
:10248000000000000000000000000000000000004C
:10249000000000000000000000000000000000003C
:1024A000000000000000000000000000000000002C
:1024B000000000000000000000000000000000001C
:1024C000000000000000000000000000000000000C
:1024D00000000000000000000000000000000000FC
:1024E00000000000000000000000000000000000EC
:1024F00000000000000000000000000000000000DC
:1025000000000000000000000000000000000000CB
:1025100000000000000000000000000000000000BB
:10252000000000000000000000000000000003FFA9
:10253000F0000000000000000000000000000FFF9D
:10254000FF800000000000000000000000001FFFEE
:10255000FFFFF000000000000000000000001FFF6F
:10256000FFFFF000000000000000000000001E3827
:102570003FFFFE00000000000000000000007000AF
:1025800000FF888000000000000000000000F1E073
:102590000C5FC00000000000000000000001F1F02E
:1025A0001C4B80000000000000000000000381BC04
:1025B0000C00400000000000000000000000023F8E
:1025C000000218001F800007F8000000001818071C
:1025D000D80001001001FFFFFF800000001C000078
:1025E000F8000008100027FFFFE00000001F0000B7
:1025F000744A10281488007FFFFC000000060000C9
:102600002000000000001018FFFFF0000000000094
:1026100028000000000010000007F000000000008B
:1026200048580008160010000000000000000000DC
:102630004C5B081C369010000000000000000000F9
:102640004C72091817900000000000000000000004
:102650007C300008030000000000000000000000C3
:10266000783000031F80030000000000000000001D
:102670004C3E00C0004000180000000000000000B8
:1026800080FFC000000F801C00000000000000015F
:102690000B108000000003BC0000000000000001DF
:1026A000040840000000003E00000000000000029E
:1026B000100040000000001E0000000000000004A8
:1026C000400220000000000F000000000000000990
:1026D000000120000000000F800000000000001E2C
:1026E0000000900000000007C00000000000003C57
:1026F0000000780000000007F000000000000070FB
:102700000000380000000007FC000000000000C0CE
:102710000000380000000007FE00000000000780F5
:1027200000001800000000078000000000000F00FB
:1027300000000C0000000001C00000000000780054
:1027400000000E0000000000F00000000000F80093
:102750000000070000000000F00000000000000082
:1027600000000F000000000030000000000000002A
:1027700000003E000000000000000000000000001B
:1027800000007C00000000000000000000000000CD
:102790000000000000000000000000000000000039
:1027A0000000000000000000000000000000000029
:1027B0000000000000000000000000000000000019
:1027C0000000000000000000000000000000000009
:1027D00000000000000000000000000000000000F9
:1027E00000000000000000000000000000000000E9
:1027F00000000000000000000000000000000000D9
:1028000000000000000000000000000000000000C8
:1028100000000000000000000000000000000000B8
:1028200000000000000000000000000000000000A8
:102830000000000000000000000000000000000098
:102840000000000000000000000000000000000088
:102850000000000000000000000000000000000078
:102860000000000000000000000000000000000068
:102870000000000000000000000000000000000058
:102880000000000000000000000000000000000048
:102890000000000000000000000000000000000038
:1028A0000000000000000000000000000000000028
:1028B0000000000000000000000000000000000018
:1028C0000000000000000000000000000000000008
:1028D00000000000000000000000000000000000F8
:1028E00000000000000000000000000000000000E8
:1028F00000000000000000000000000000000000D8
:1029000000000000000000000000000000000000C7
:102910000000000000000000000000000000007C3B
:10292000000000000000000000000000000001FFA7
:10293000800000000000000000000000000003FF15
:10294000F80000000000000000000000000007FF89
:10295000FFFE0000000000000000000000000F80EB
:10296000FFFFC7C0000000000000000000003E8321
:1029700087FFFC00000000000000000000007CE079
:1029800000FFF80000000000000000000000FCF262
:10299000001FC2000000000000000000000180F8DD
:1029A0000003E00000000000000000000002009EA4
:1029B0000000E0000000000000000000000C030F19
:1029C00080001C01800FFFFFFFF800000006B0032D
:1029D000C00000700000FFFFFFFF00000007800044
:1029E000EC000000000047FFFFFFC00000030000F4
:1029F0007C000000000041FFFFF0600000000000CC
:102A0000380004000000403FFFFE180000000000F6
:102A10001FFBFF001C7F4000F800C4000000000006
:102A20003FFDFF800CFFC000000000000000000020
:102A3000200C000006004000000000000000000024
:102A4000100C000003002000000000000000000047
:102A5000180C00000F003000000000000000000013
:102A60000E0C0001FCC007F0000000000000000098
:102A700007FDFF9C003FFFF0000000000000000089
:102A8000040FA7C0000007F80000000000000000CD
:102A9000041BF800000006380000000000000000E1
:102AA000023408000000061C0000000000000000C6
:102AB000022304000000070E0000000000000000D8
:102AC0000220C20000000707000000000000000014
:102AD0000240320000000703C000000000000000B8
:102AE00002400D8000000383E000000000000000B1
:102AF00003C003C0000000F87F00000000000000D9
:102B000003C001E00000003C0F00000000000000D6
:102B100003800038000000000000000000000000FA
:102B20000300000F00000000000000000000000093
:102B3000030000078000000000000000000000000B
:102B400007000001C00000000000000000000000BD
:102B500006000000E000000000000000000000008F
:102B60003E000000E0000000000000000000000047
:102B7000F80000002000000000000000000000003D
:102B80000000000000000000000000000000000045
:102B90000000000000000000000000000000000035
:102BA0000000000000000000000000000000000025
:102BB0000000000000000000000000000000000015
:102BC0000000000000000000000000000000000005
:102BD00000000000000000000000000000000000F5
:102BE00000000000000000000000000000000000E5
:102BF00000000000000000000000000000000000D5
:102C000000000000000000000000000000000000C4
:102C100000000000000000000000000000000000B4
:102C200000000000000000000000000000000000A4
:102C30000000000000000000000000000000000094
:102C40000000000000000000000000000000000084
:102C50000000000000000000000000000000000074
:102C60000000000000000000000000000000000064
:102C70000000000000000000000000000000000054
:102C80000000000000000000000000000000000044
:102C90000000000000000000000000000000000034
:102CA0000000000000000000000000000000000024
:102CB0000000000000000000000000000000000014
:102CC0000000000000000000000000000000000004
:102CD00000000000000000000000000000000000F4
:102CE00000000000000000000000000000000000E4
:102CF00000000000000000000000000000000000D4
:102D000000000000000000000000000000000000C3
:102D1000000000000000000000000000000000FFB4
:102D2000C00000000000000000000000000001FFE3
:102D3000F80000000000000000000000000003FF99
:102D4000FE0000000000000000000000000007FF7F
:102D5000FF8000000000000000000000000007836A
:102D6000FFE00700000000000000000000001E83DC
:102D70009FFC0E00000000000000000000003E303C
:102D800003FFFC00000000000000000000007CBE0B
:102D9000003FF00000000000000000000000803E46
:102DA0000007FC0000000000000000000001000F10
:102DB0000000E000F1F01FE000000000000203034B
:102DC00000002006000FFFFC00000000000380014F
:102DD000800007E00001CFFFFFFFC0000003C0003C
:102DE000C0000000000081FFFFFFF800000080002D
:102DF000600000003000807FFFFF3E000000000008
:102E0000600004003000801FFFFF81000000000010
:102E10003FFFFF00387F8007FE0020000000000019
:102E20001FFFBF8018FE80000000000000000000AF
:102E30000C01C000180100000000000000000000AC
:102E40000400C000180E0000000000000000000098
:102E50000400E0005E03FF0000000000000000002E
:102E60000400600300E0FF0000000000000000001C
:102E700003FF7F98000FE7800000000000000000C3
:102E800000C07FC00001C3800000000000000000FF
:102E9000002070000001C1C0000000000000000020
:102EA00000107000000380E000000000000000003F
:102EB000000868000003007000000000000000002F
:102EC000000468000007007000000000000000001F
:102ED000000238000006007C000000000000000036
:102EE0000001F8000007003E0000000000000000A4
:102EF0000000FE04000700060000000000000000C3
:102F00000000FFFFF00700000000000000000000CC
:102F10000000701FE003000000000000000000003F
:102F20000000300000000000000000000000000071
:102F30000000180000000000000000000000000079
:102F400000000C0000000000000000000000000075
:102F500000000E0000000000000000000000000063
:102F600000001C0000000000000000000000000045
:102F70000000F00000000000000000000000000061
:102F80000001F00000000000000000000000000050
:102F90000000000000000000000000000000000031
:102FA0000000000000000000000000000000000021
:102FB0000000000000000000000000000000000011
:102FC0000000000000000000000000000000000001
:102FD00000000000000000000000000000000000F1
:102FE00000000000000000000000000000000000E1
:102FF00000000000000000000000000000000000D1
:1030000000000000000000000000000000000000C0
:1030100000000000000000000000000000000000B0
:1030200000000000000000000000000000000000A0
:103030000000000000000000000000000000000090
:103040000000000000000000000000000000000080
:103050000000000000000000000000000000000070
:103060000000000000000000000000000000000060
:103070000000000000000000000000000000000050
:103080000000000000000000000000000000000040
:103090000000000000000000000000000000000030
:1030A0000000000000000000000000000000000020
:1030B0000000000000000000000000000000000010
:1030C0000000000000000000000000000000000000
:1030D00000000000000000000000000000000000F0
:1030E00000000000000000000000000000000000E0
:1030F00000000000000000000000000000000000D0
:1031000000000000000000000000000000000000BF
:103110007E0000000000000000000000000000FF32
:10312000FF8000000000000000000000000003FF1E
:10313000FFE000000000000000000000000003FFAE
:10314000FFF000000000000000000000000003B9D4
:10315000FFF8000000000000000000000000070071
:103160003FFC0000000000000000000000001F38CD
:1031700017FE0000000000000000000000001E38E4
:1031800001FF0000000007F80000000000003C1CE8
:103190000C7FC08000001FFE000000000000203EE9
:1031A0001C4FFE0000003FFF000000000000804FA9
:1031B0000C01F8007F00FFFF800000000001840781
:1031C00000023804001FFFFFC00000000000F003F1
:1031D0008C0003C8100303FFE00030000000F00083
:1031E000C8000008100000FFF81FF00000000000F9
:1031F0006C4A10281488007FFFFF000000000000C8
:10320000300000004000001FFFFF800000000000B1
:103210001800000060000007FFE000000000000050
:1032200008400008D0120000FE000000000000006E
:103230000C4B081CD09800000000000000000000AB
:103240000C423118D098000000000000000000007F
:103250000C0030088C02000000000000000000009C
:103260000C00300807F8F800000000000000000023
:1032700007003820007FF000000000000000000080
:1032800001E01F00003FE00000000000000000001F
:1032900000781000003FC0000000000000000000A7
:1032A000005C10000079C000000000000000000079
:1032B0000007080001E1800000000000000000009D
:1032C0000044080007830000000000000000000028
:1032D000002448F00E07000000000000000000007D
:1032E000002409E01C0700000000000000000000AE
:1032F000003C2F80380700000000000000000000A4
:10330000003FDE003803C0000000000000000000A5
:10331000000E07003003C0000000000000000000A5
:10332000000000F00001800000000000000000002C
:103330000000003E0000000000000000000000004F
:103340000000000E0000000000000000000000006F
:1033500000000007800000000000000000000000E6
:1033600000000003800000000000000000000000DA
:1033700000000003800000000000000000000000CA
:10338000000000020000000000000000000000003B
:10339000000000000000000000000000000000002D
:1033A000000000000000000000000000000000001D
:1033B000000000000000000000000000000000000D
:1033C00000000000000000000000000000000000FD
:1033D00000000000000000000000000000000000ED
:1033E00000000000000000000000000000000000DD
:1033F00000000000000000000000000000000000CD
:1034000000000000000000000000000000000000BC
:1034100000000000000000000000000000000000AC
:10342000000000000000000000000000000000009C
:10343000000000000000000000000000000000008C
:10344000000000000000000000000000000000007C
:10345000000000000000000000000000000000006C
:10346000000000000000000000000000000000005C
:10347000000000000000000000000000000000004C
:10348000000000000000000000000000000000003C
:10349000000000000000000000000000000000002C
:1034A000000000000000000000000000000000001C
:1034B000000000000000000000000000000000000C
:1034C00000000000000000000000000000000000FC
:1034D00000000000000000000000000000000000EC
:1034E00000000000000000000000000000000000DC
:1034F00000000000000000000000000000000000CC
:1035000001F80000000000000000000000000001C1
:10351000BFFF00000000000000000000000000DF0E
:10352000FFFFC0000000000000000000000001FFDD
:10353000FFFFE0000000000000000000000001FFAD
:10354000FFFFE0000000000000000000000001C1DB
:10355000FFFFF0000000000000000000000003205A
:103560001FFEF000000000000000000000000FB887
:103570001FFE1000000000000000000000000F1CF3
:1035800000FFC80000000000000000000000162E30
:103590000C7FF00000000FFC000000000000303F36
:1035A0001C4F000000003FFE0000000000006027EC
:1035B0000C0040006101FFFF000000000000C70395
:1035C00080021804003FFFFF8000000000007C0123
:1035D000CC0003E8100F81FFC000000000007C0059
:1035E000C80000081002007FF0000000000000008A
:1035F0006C4A1028D488001FFF0000000000000063
:1036000020000000C000000FFFF0000000000000DC
:103610003C00000180020003FFFFFE0000000000EC
:103620001C4000091000000007FFE000000000003F
:103630001C4B081FB0F0000000000000000000005C
:103640001C42311990F00000000000000000000052
:103650002C003008FC00000000000000000000000A
:103660001E003808FC33C00000000000000000000D
:103670000F0C1800740FE0000000000000000000B4
:103680000DFC1800040F8000000000000000000086
:1036900018781000121F0000000000000000000059
:1036A000418420000F7C00000000000000000003A7
:1036B000C00420000FF00000000000000000000126
:1036C000800020003F80000000000000000000009B
:1036D000C0034001FF0000000000000000000000E7
:1036E0007002400F0E00000000000000000000000B
:1036F0003C81C01E0E000000000000000000000021
:103700000FF1C01C0E0000000000000000000000CF
:103710000001FFF8000000000000000000000000B1
:103720000000038000000000000000000000000016
:103730000000000000000000000000000000000089
:103740000000000000000000000000000000000079
:103750000000000000000000000000000000000069
:103760000000000000000000000000000000000059
:103770000000000000000000000000000000000049
:103780000000000000000000000000000000000039
:103790000000000000000000000000000000000029
:1037A0000000000000000000000000000000000019
:1037B0000000000000000000000000000000000009
:1037C00000000000000000000000000000000000F9
:1037D00000000000000000000000000000000000E9
:1037E00000000000000000000000000000000000D9
:1037F00000000000000000000000000000000000C9
:1038000000000000000000000000000000000000B8
:1038100000000000000000000000000000000000A8
:103820000000000000000000000000000000000098
:103830000000000000000000000000000000000088
:103840000000000000000000000000000000000078
:103850000000000000000000000000000000000068
:103860000000000000000000000000000000000058
:103870000000000000000000000000000000000048
:103880000000000000000000000000000000000038
:103890000000000000000000000000000000000028
:1038A0000000000000000000000000000000000018
:1038B0000000000000000000000000000000000008
:1038C00000000000000000000000000000000000F8
:1038D00000000000000000000000000000000000E8
:1038E00000000000000000000000000000000000D8
:1038F00000000000000000000000000000000000C8
:1039000000000000000000000000000000000000B7
:10391000207FE00000000000000000000000003FE9
:10392000E7FFEC000000000000000000000001FFC5
:10393000FFF800000000000000000000000001FF90
:10394000FFF9C0000000000000000000000001FBC3
:10395000FFFFF8000000000000000000000001C2AE
:103960001FFFFE000000000000000000000003DF59
:103970008BFFE100000000000000000000000F8E3F
:1039800000FFF800000000000000000000000F8FA2
:10399000001FC000000000000000000000001E0F1B
:1039A000000300000000031FF0000000000010836F
:1039B0008000C00380E01FFFFF8000000000202186
:1039C000C0003C78001FFFFFFFE0000000004180C6
:1039D000E00000000007FFFFFFF800000000740097
:1039E00060000000C0020001FFFE000000003C007B
:1039F00030000000C00200000FFF000000001800AF
:103A000010000400C002000001FFF00000000000F0
:103A10001FFFFF01807E0000003FE000000000006B
:103A20003FFEFF8180FE00000003F8000000000060
:103A30004600C001800C00000000000000000000F3
:103A40004600C001C030000000000000000000007F
:103A50006600C003C18000000000000000000001FB
:103A6000F618600DF1000000000000000000003EAC
:103A7000FFFF6770B9000000000000000000001F99
:103A8000CFE06F80598000000000000000000018A7
:103A90001FC080005F8000000000000000000018D0
:103AA00000C300007FC00000000000000000000C08
:103AB000008C0000FFC00000000000000000000EAD
:103AC00003E0001FFC000000000000000000000FE9
:103AD000E380003EFC000000000000000000000346
:103AE000E3C1307070000000000000000000000022
:103AF000203FFCE0E00000000000000000000000AB
:103B0000000380E1800000000000000000000000D1
:103B1000000000870000000000000000000000001E
:103B20000000001E00000000000000000000000077
:103B30000000007C00000000000000000000000009
:103B4000000000E000000000000000000000000095
:103B5000000003C0000000000000000000000000A2
:103B60000000000000000000000000000000000055
:103B70000000000000000000000000000000000045
:103B80000000000000000000000000000000000035
:103B90000000000000000000000000000000000025
:103BA0000000000000000000000000000000000015
:103BB0000000000000000000000000000000000005
:103BC00000000000000000000000000000000000F5
:103BD00000000000000000000000000000000000E5
:103BE00000000000000000000000000000000000D5
:103BF00000000000000000000000000000000000C5
:103C000000000000000000000000000000000000B4
:103C100000000000000000000000000000000000A4
:103C20000000000000000000000000000000000094
:103C30000000000000000000000000000000000084
:103C40000000000000000000000000000000000074
:103C500000100010001000100010001000000010F4
:103C600000000000002800280028000000000000DC
:103C7000000000000000000000240024007C00245C
:103C80000048007C00480048000000000038005454
:103C90000050003800140054005400380010000098
:103CA0000020005400580030002800540014000880
:103CB0000000000000100028002800100034004818
:103CC0000048003400000000001000100010000048
:103CD00000000000000000000000000000080010CC
:103CE00000200020002000200020002000100008FC
:103CF0000020001000080008000800080008000864
:103D00000010002000100038001000280000000003
:103D10000000000000000000000000000010001083
:103D2000007C0010001000000000000000000000F7
:103D30000000000000000000000000100010001053
:103D4000000000000000000000000038000000003B
:103D50000000000000000000000000000000000063
:103D60000000001000000000000800080010001013
:103D70000010001000200020000000000038004467
:103D80000044005400440044004400380000000097
:103D90000010003000500010001000100010001043
:103DA0000000000000380044004400040008001037
:103DB0000020007C000000000038004400040018CF
:103DC000000400040044003800000000000800184F
:103DD000002800280048007C0008000800000000BF
:103DE000007C0040004000780004000400440038DB
:103DF0000000000000380044004000780044004407
:103E00000044003800000000007C0004000800109E
:103E100000100020002000200000000000380044B6
:103E20000044003800440044004400380000000012
:103E30000038004400440044003C000400440038C2
:103E40000000000000000000001000000000000062
:103E50000000001000000000000000000000001042
:103E60000000000000000010001000100000000022
:103E7000000C003000400030000C0000000000008A
:103E8000000000000000007C0000007C000000003A
:103E9000000000000000000000600018000400188E
:103EA000006000000000000000380044000400082A
:103EB0000010001000000010000000000038004456
:103EC000004C0054005C004000400038000000003E
:103ED00000100028002800280028007C004400442E
:103EE00000000000007800440044007800440044D2
:103EF000004400780000000000380044004000400A
:103F000000400040004400380000000000700048FD
:103F100000440044004400440048007000000000D9
:103F2000007C00400040007C004000400040007CDD
:103F300000000000007C004000400078004000408D
:103F400000400040000000000038004400400040F5
:103F5000005C0044004400380000000000440044BD
:103F60000044007C00440044004400440000000081
:103F70000038001000100010001000100010003871
:103F80000000000000040004000400040004000419
:103F90000044003800000000004400480050006069
:103FA000005000480048004400000000004000406D
:103FB00000400040004000400040007C0000000045
:103FC0000044006C006C0054004400440044004471
:103FD0000000000000440064006400540054004CE1
:103FE000004C00440000000000380044004400443D
:103FF0000044004400440038000000000078004401
:1040000000440044007800400040004000000000F0
:104010000038004400440044004400440054003888
:104020000004000000780044004400440078004888
:104030000048004400000000003800440040003008
:10404000000800040044003800000000007C00105C
:104050000010001000100010001000100000000000
:10406000004400440044004400440044004400383C
:1040700000000000004400440044002800280028FC
:1040800000100010000000000044004400540054E0
:104090000054006C002800280000000000440028A4
:1040A0000028001000100028002800440000000034
:1040B00000440044002800280010001000100010E8
:1040C00000000000007C0004000800100010002028
:1040D0000040007C000000000018001000100010DC
:1040E0000010001000100010001000180020002028
:1040F0000010001000100010000800080000000070
:10410000003000100010001000100010001000100F
:1041100000100030001000280028004400000000BB
:10412000000000000000000000000000000000008F
:104130000000000000000000000000FE0020001051
:10414000000000000000000000000000000000006F
:104150000000000000380044003C0044004C0034E3
:10416000000000000040004000580064004400448B
:104170000064005800000000000000000038004407
:10418000004000400044003800000000000400042B
:104190000034004C00440044004C00340000000097
:1041A0000000000000380044007C0040004400385B
:1041B00000000000000C0010007C00100010001037
:1041C0000010001000000000000000000034004C4F
:1041D00000440044004C00340004007800400040DB
:1041E0000058006400440044004400440000000003
:1041F00000100000007000100010001000100010EF
:1042000000000000001000000070001000100010FE
:1042100000100010001000E0004000400048005076
:1042200000600050004800440000000000700010D2
:10423000001000100010001000100010000000001E
:104240000000000000780054005400540054005452
:10425000000000000000000000580064004400441A
:10426000004400440000000000000000003800444A
:10427000004400440044003800000000000000003A
:1042800000580064004400440064005800400040AE
:10429000000000000034004C00440044004C003496
:1042A00000040004000000000058006400400040CA
:1042B0000040004000000000000000000038004402
:1042C00000300008004400380000000000200020FA
:1042D00000780020002000200020001800000000CE
:1042E000000000000044004400440044004C00343E
:1042F00000000000000000000044004400280028E6
:1043000000280010000000000000000000540054CD
:104310000054006C0028002800000000000000008D
:104320000044002800100010002800440000000095
:104330000000000000440044002800280010001085
:104340000010006000000000007C00080010002049
:104350000040007C00000000001800100010001059
:1043600000200020001000100010001800100010A5
:1043700000100010001000100010001000100010BD
:10438000003000100010001000080008001000109D
:10439000001000300000000000000074004C00001D
:1043A000000000000000000000000000000000000D
:1043B00000000000000000000000000000000000FD
:1043C0000000000000000000000000000000000CE1
:1043D000000C000C000C000C000C000C000C000C7D
:1043E000000C000C0000000C000C0000000000009D
:1043F0000000001B001B001B001B001B0000000036
:1044000000000000000000000000000000000000AC
:104410000000000000008019801980198019C07FF9
:10442000C07F80190033C07FC07F0033003300336A
:1044300000330000000000000000001E003F8075F7
:1044400080650074003C001E000780058065806563
:104450008075003F001E0004000400000000007092
:1044600000D840D8C0D880D900730006000C801B4B
:10447000C036C066C046C0068003000000000000D1
:104480000000001E003F003300330033001E000C0C
:10449000C03CC066806380618063C03E801C0000B9
:1044A000000000000000000C000C000C000C000CD0
:1044B00000000000000000000000000000000000FC
:1044C0000000000000000000800000010003000662
:1044D00000060004000C000C000C000C000C000C8A
:1044E0000004000600060003000180000020001008
:1044F0000018000C000C0004000600060006000670
:10450000000600060004000C000C0018001000203B
:104510000000000C002D003F001E003300000000D2
:10452000000000000000000000000000000000008B
:1045300000000000000000000000000C000C000C57
:10454000000CC0FFC0FF000C000C000C000C0000B1
:10455000000000000000000000000000000000005B
:10456000000000000000000000000000000000004B
:104570000000000C000C0004000400080000000013
:104580000000000000000000000000000000001E0D
:10459000001E0000000000000000000000000000FD
:1045A000000000000000000000000000000000000B
:1045B00000000000000000000000000C000C0000E3
:1045C00000000000000000030003000300060006D6
:1045D00000060006000C000C000C000C001800186F
:1045E00000180000000000000000001E003F003323
:1045F000806180618061806D806D8061806180619B
:104600000033003F001E0000000000000000000614
:10461000000E001E003600260006000600060006FA
:10462000000600060006000600060000000000006C
:104630000000001E003F80738061806180010003E4
:104640000006000C001800300060807F807F0000B2
:10465000000000000000001C003E00630063000337
:10466000000E000E00038001800180618073003F16
:10467000001E00000000000000000006000E000EFA
:10468000001E001E0016003600360066807F807F08
:104690000006000600060000000000000000007F89
:1046A000007F006000600060006E007F806380011A
:1046B000800180618073003F001E00000000000048
:1046C0000000001E003F803380610060006E007FAC
:1046D00080738061806180618033003F001E000034
:1046E000000000000000807F807F80010003000345
:1046F00000060006000C000C000C00080018001852
:1047000000180000000000000000001E003F806351
:10471000806180610021001E003F806180618061B6
:104720008061003F001E0000000000000000001E2D
:10473000003F00738061806180618073803F801DD5
:10474000800180610073003F001E00000000000037
:1047500000000000000000000000000C000C000041
:1047600000000000000000000000000C000C000031
:104770000000000000000000000000000000000039
:10478000000C000C00000000000000000000000C05
:10479000000C0004000400080000000000000000FD
:1047A00080008003000E003800600038000E800397
:1047B0008000000000000000000000000000000079
:1047C000000000000000807F807F00000000807FEC
:1047D000807F0000000000000000000000000000DA
:1047E000000000000000000000400070001C0007F6
:1047F00080010007001C0070004000000000000065
:10480000000000000000001F803FC071C060C000B9
:10481000C00180030007000E000C000C0000000C1B
:10482000000C0000000000000000001E003F80316E
:1048300080718063806F806D806D806F80670060A5
:104840000032003E001C0000000000000000000ECE
:10485000000E001B001B001B001B80318031803FBD
:10486000803F8031C060C060C06000000000000078
:104870000000007C007E0063006300630063007E34
:10488000007E0063806180618063007F007E0000A5
:10489000000000000000001E003F803180610060C9
:1048A0000060006000600060006080618031003F57
:1048B000001E0000000000000000007C007F00637C
:1048C000806380618061806180618061806100635C
:1048D0000063007E007C0000000000000000807F7C
:1048E000807F0060006000600060007F007F0060EB
:1048F000006000600060807F807F0000000000009A
:104900000000807F807F0060006000600060007FAA
:10491000007F0060006000600060006000600000D8
:10492000000000000000001E003F80318061006038
:104930000060006080638063806180618031803FBF
:10494000001E0000000000000000806180618061A6
:10495000806180618061807F807F80618061806113
:104960008061806180610000000000000000003F65
:10497000003F000C000C000C000C000C000C000CA4
:10498000000C000C000C003F003F00000000000085
:104990000000800180018001800180018001800190
:1049A00080018001806180618073003F001E0000F3
:1049B000000000000000C0608061006300660066C7
:1049C000006C0078007C0066006600638061806196
:1049D000C060000000000000000000600060006097
:1049E00000600060006000600060006000600060C7
:1049F0000060807F807F0000000000000000C07128
:104A0000C071C07BC07AC06AC06AC06EC064C0603A
:104A1000C060C060C060C060C060000000000000F6
:104A2000000080718071807980798079806D806DDF
:104A3000806D806580678067806780638063000029
:104A4000000000000000001E003F00338061806114
:104A50008061806180618061806180610033003F9E
:104A6000001E0000000000000000007E007F806348
:104A70008061806180618063007F007E00600060F3
:104A80000060006000600000000000000000001EE8
:104A9000003F00338061806180618061806180615E
:104AA000806580670033803F401E000000000000EA
:104AB0000000007E007F8063806180618063007FF2
:104AC000007E00660063006380618061C06000005A
:104AD000000000000000000E001F80318031003017
:104AE0000038001E00078003806180618031003F34
:104AF000001E0000000000000000C0FFC0FF000C0E
:104B0000000C000C000C000C000C000C000C000C45
:104B1000000C000C000C0000000000000000806190
:104B2000806180618061806180618061806180617D
:104B3000806180618073003F001E00000000000063
:104B40000000C060C060C060803180318031001BD7
:104B5000001B001B001B000E000E000E00040000D6
:104B6000000000000000C0C0C0C0C0C0C0C0C0C0C5
:104B7000C0CC804C804C805E8052805280738061BB
:104B800080610000000000000000C0C08060806103
:104B90000033003B001E000C000C001E001F003BF9
:104BA00080718061C0C00000000000000000C0C033
:104BB0008061806100330033001E001E000C000C79
:104BC000000C000C000C000C000C000000000000A9
:104BD0000000803F803F8001000300030006000CBE
:104BE000000C0018001800300060807F807F0000FB
:104BF00000000000000F000F000C000C000C000C67
:104C0000000C000C000C000C000C000C000C000C44
:104C1000000C000C000F000F000000180018001816
:104C2000000C000C000C000C00060006000600063C
:104C3000000300030003000000000000001E001E2F
:104C40000006000600060006000600060006000634
:104C5000000600060006000600060006001E001EF4
:104C60000000000C000C001E0012003300338061B5
:104C70008061000000000000000000000000000053
:104C80000000000000000000000000000000000024
:104C90000000000000000000000000000000000014
:104CA00000000000E0FF0000000000380018000CC9
:104CB00000000000000000000000000000000000F4
:104CC00000000000000000000000000000000000E4
:104CD000000000000000001F803F80618001801FF5
:104CE000803F80618063807FC0380000000000004A
:104CF00000000060006000600060006E007F807354
:104D000080618061806180618073007F006E00003F
:104D10000000000000000000000000000000001E75
:104D2000003F807380610060006080618073003F9D
:104D3000001E0000000000000000800180018001D2
:104D40008001801D803F807380618061806180610F
:104D50008073803F801D0000000000000000000004
:104D6000000000000000001E003F00738061807F93
:104D7000807F00608071003F001E00000000000086
:104D80000000C007C00F000C000C807F807F000C6B
:104D9000000C000C000C000C000C000C000C0000BF
:104DA000000000000000000000000000801D803FA7
:104DB000807380618061806180618073803F801D2D
:104DC00080018063007F003E0000006000600060A2
:104DD0000060006F807F8071806180618061806190
:104DE000806180618061000000000000000000061A
:104DF000000600000000003E003E0006000600061F
:104E00000006000600060006000600000000000084
:104E10000006000600000000003E003E00060006FE
:104E20000006000600060006000600060006004612
:104E3000007E003C00000060006000600060806157
:104E400000630066006C007C007600630063806194
:104E5000C0600000000000000000003E003E0006B0
:104E60000006000600060006000600060006000612
:104E70000006000600060000000000000000000020
:104E800000000000000080DDC0FFC0CEC0CCC0CC60
:104E9000C0CCC0CCC0CCC0CCC0CC00000000000056
:104EA00000000000000000000000006F807F8071A3
:104EB00080618061806180618061806180610000CB
:104EC0000000000000000000000000000000001EC4
:104ED000003F807380618061806180618073003FEA
:104EE000001E0000000000000000000000000000A4
:104EF000006E007F8073806180618061806180735B
:104F0000007F006E00600060006000600000000034
:104F100000000000801D803F80738061806180619F
:104F200080618073803F801D80018001800180014D
:104F3000000000000000000000000067803F003912
:104F40000030003000300030003000300030000011
:104F50000000000000000000000000000000001E33
:104F6000803F80610060007F803F80018061007F22
:104F7000001E0000000000000000000000080018F3
:104F80000018007F007F0018001800180018001893
:104F90000018801F800F00000000000000000000CB
:104FA000000000000000806180618061806180619C
:104FB000806180618063807F803D00000000000090
:104FC00000000000000000000000C060803180315F
:104FD0008031001B001B001B000E000E00060000AD
:104FE000000000000000000000000000000080DD64
:104FF00080DD80DD005500550055007700770022E8
:10500000002200000000000000000000000000007E
:105010000000806100330033001E000C000C001EF5
:105020000033003380610000000000000000000039
:105030000000000080618061803100330033001B7C
:10504000001B001B000E000E000E001C007C0070F8
:1050500000000000000000000000C07FC07F800151
:1050600000030006000C00180030C07FC07F000065
:10507000000000008003800700060006000600060E
:105080000006000E001C001C000E000600060006B4
:1050900000060006800780030006000600060006E2
:1050A00000060006000600060006000600060006D0
:1050B0000006000600060006000600060038003C58
:1050C000000C000C000C000C000C000E0007000788
:1050D000000E000C000C000C000C000C003C003812
:1050E0000000000000000000000000000000803808
:1050F000807F00470000000000000000000000006A
:10510000000000000000000000000000000000009F
:10511000000000000000000000000000000000008F
:10512000000000000000000000000000000000007F
:105130000000000000000000E003E003E003E003E3
:10514000E003E003E003E003C003C003C001C001CB
:10515000C001C001C001000000000000E003E00346
:10516000E003000000000000000000003C1E3C1EA8
:105170003C1E3C1E3C1E3C1E3C1E0000000000006D
:10518000000000000000000000000000000000001F
:10519000000000000000000000000000000000000F
:1051A000CE01CE03DE039E039C039C07FF3FFF7FDF
:1051B0003807380F780F780F780EFFFFFFFFF01ECB
:1051C000F01CE01CE03CE03DE03900000000000085
:1051D00000000000FC03FE0FEE1FE01EE01EE01EBC
:1051E000E01EE01FE00FE007F003FC01FE01FE01FE
:1051F000FE01FE01FE01FE01FE3DFC3FF00FE0015D
:10520000E001000000000000033E07F78FE78EE793
:105210009EE3BCE3B8E7F8E7F0F7E03FC001FF0327
:10522000FF07F307F30FF31EF33CF338F3787FF037
:105230003FE000000000000000000000E007F80F61
:10524000780F781F781F781F780FF00FE00F801FFE
:10525000C37FC3FBE7F3F7F1F7F0FFF07FF03EF811
:105260007F7CFF3FEF1F00000000000000000000F7
:10527000E003E003E003E003E003C003C00100003B
:10528000000000000000000000000000000000001E
:10529000000000000000000000000000000000000E
:1052A000000000003F007C00F001E001C003C007E7
:1052B00080078007800F000F000F000F000F000F06
:1052C000000F800F80078007C007C003E001F001D6
:1052D0007C003F000F000000007E001FC007C003DD
:1052E000E001F001F000F000F800780078007800AC
:1052F000780078007800F800F000F000F001E0019C
:10530000C003C007001F007E00780000E003C00358
:10531000C001CE39FF3F7F3F20037003F807780FAD
:105320003C1F3806000000000000000000000000E4
:10533000000000000000000000000000000000006D
:10534000000000000000000000000000C001C001DB
:10535000C001C001C001C001C001FFFFFFFFC001CB
:10536000C001C001C001C001C00100000000000078
:10537000000000000000000000000000000000002D
:10538000000000000000000000000000000000001D
:10539000000000000000E003E003E003E003E001A0
:1053A000E001E001C00180030000000000000000F7
:1053B0000000000000000000000000000000FE3FB0
:1053C000FE3F0000000000000000000000000000A0
:1053D00000000000000000000000000000000000CD
:1053E00000000000000000000000000000000000BD
:1053F0000000000000000000000000000000E003CA
:10540000E003E003E00300000000000000000000F3
:105410000F000F001E001E003C003C0078007800CA
:10542000F000F000E001E001C003C0038007800746
:10543000000F000F001E001E003C003C00780078AA
:1054400000F00000F007F80F7C1F3E3E1E3C1F7C62
:105450001F7C0F780F780F780F780F780F780F7800
:105460001F7C1F7C1E3C3E3E7C1FF80FF007000097
:105470000000000000000000F000F007F03FF03FE7
:10548000F001F001F001F001F001F001F001F00194
:10549000F001F001F001F001F001F001F001FF3F37
:1054A000FF3F00000000000000000000E00FF83F98
:1054B0007C3C3C003E003E003E003C003C007C004A
:1054C000F800F001E003C0078007000F001E003E57
:1054D000003CFE3FFE3F0000000000000000000016
:1054E000F00FF81F7C1C3E003E003E003C003C00DC
:1054F000F800F00FF80F7C003E001E001E001E009A
:105500001E003E007C1CF81FE01F00000000000091
:10551000000000007800F800F800F801F803F80730
:10552000F807780F781E781E783C78787878FFFF37
:10553000FFFF78007800780078007800780000009D
:105540000000000000000000FC1FFC1FFC1F001EEC
:10555000001E001E001E001EE01FF81FFC007C0045
:105560003E003E001E003E003E003C007C1CF81F3A
:10557000E01F00000000000000000000FC01FE072A
:105580008E0F001F001E003E003C003CF83DFC3F1B
:105590003E7F1F7E0F3C0F3C0F3C0F3C0F3E1F1EFB
:1055A0003E1FFC0FF00300000000000000000000A0
:1055B000FF3FFF3FFF3F0F001E001E003C00380072
:1055C0007800F000F000E001E001C003C0038007B4
:1055D000800F800F000F001F001F00000000000060
:1055E00000000000F807FC0F3E1F1E1E1E3E1E3E60
:1055F0001E1E3C1FF80FF007F80FFC1E3E3E1F3C1E
:105600001F7C0F7C0F7C1F3C3E3FFC1FF0070000FF
:105610000000000000000000F007F80F7C1E3E3C78
:105620001E3C1F7C1F7C1F7C1F7C1F3C3F3EFF1FBE
:10563000EF071F001E001E003E003C00F838F03F40
:10564000E01F00000000000000000000000000005B
:105650000000000000000000E003E003E003E003BE
:105660000000000000000000000000000000E00357
:10567000E003E003E0030000000000000000000081
:10568000000000000000000000000000E003E00354
:10569000E003E00300000000000000000000000044
:1056A0000000E003E003E003E003E001E001E001CB
:1056B000C0038003000000000000000000000000A4
:1056C00003000F003F00FC00F003C00F003F00FE8E
:1056D000003FC00FF003FC003F000F00030000007C
:1056E00000000000000000000000000000000000BA
:1056F000000000000000000000000000FFFFFFFFAE
:10570000000000000000FFFFFFFF0000000000009D
:105710000000000000000000000000000000000089
:10572000000000000000000000E000F8007E801F84
:10573000E007F8017E001F007E00F801E007801FEF
:10574000007E00F800E00000000000000000000003
:10575000F01FFC3F3E381F381F381E001E003C0063
:105760007800F000E001C003C003C007C0070000DC
:1057700000000000C007C007C007000000000000D4
:1057800000000000F803FE0F1E1F0F3E7F3CFF7855
:10579000EF79C773C7F38FF38FF38FF39FF39FF303
:1057A000FF73FF7BF779003C1C1FFC0FF803000020
:1057B0000000000000000000000000000000E00306
:1057C000E003F007F007F007780F780F7C0E3C1E1F
:1057D0003C1E3E3CFE3FFF3F1F780F780FF007F066
:1057E00007F00000000000000000000000000000C2
:1057F0000000F83FFC3F3E3C1E3C1E3C1E3C3E3C35
:105800007C3CF03FF83F7E3C1F3C1F3C0F3C0F3C74
:105810001F3CFE3FF83F00000000000000000000B9
:10582000000000000000FF01FF07871F003E003C52
:10583000007C00780078007800780078007C007C9C
:10584000003E003F831FFF07FF0100000000000033
:1058500000000000000000000000F07FFC7F7E7868
:105860001F781F780F780F780F780F780F780F78E0
:105870000F780F781F781E787E78F87FE07F000021
:105880000000000000000000000000000000FF3FDA
:10589000FF3F003E003E003E003E003E003EFE3F19
:1058A000FE3F003E003E003E003E003E003EFF3F09
:1058B000FF3F0000000000000000000000000000AA
:1058C0000000FF1FFF1F001E001E001E001E001E06
:1058D000001EFF1FFF1F001E001E001E001E001ED8
:1058E000001E001E001E000000000000000000005E
:1058F000000000000000FE03FF0F871F003E007C39
:10590000007C007800F800F87FF87FF80F780F7CB3
:105910000F7C0F3E8F1FFF0FFE03000000000000F2
:10592000000000000000000000001F7C1F7C1F7CA6
:105930001F7C1F7C1F7C1F7C1F7CFF7FFF7F1F7CC9
:105940001F7C1F7C1F7C1F7C1F7C1F7C1F7C00001A
:105950000000000000000000000000000000FF3F09
:10596000FF3FE003E003E003E003E003E003E003C4
:10597000E003E003E003E003E003E003E003FF3FB4
:10598000FF3F0000000000000000000000000000D9
:105990000000FC1FFC1F7C007C007C007C007C0065
:1059A0007C007C007C007C007C007C00780078001F
:1059B000F838F03FC03F0000000000000000000089
:1059C0000000000000001F3C1E3C3C3C783CF03CCA
:1059D000E03DE03FC03F803FC03FE03FF03DF03C56
:1059E000783C7C3C3E3C1F3C0F3C0000000000002B
:1059F00000000000000000000000003E003E003EED
:105A0000003E003E003E003E003E003E003E003EA6
:105A1000003E003E003E003E003EFF3FFF3F0000D4
:105A200000000000000000000000000000001FF85F
:105A30001FFC1FFC3FFE3FFE3FFE7FFF77FF77FF0F
:105A4000F7F7E7F7E7F3E7F3C7F307F007F007F037
:105A500007F000000000000000000000000000004F
:105A600000000F7C0F7C0F7E0F7F0F7F8F7F8F7F5B
:105A7000CF7FEF7BEF79FF79FF78FF787F783F78F2
:105A80003F781F781F780000000000000000000031
:105A9000000000000000F007FC1F3E3E1F7C0F7856
:105AA0000F780FF80FF80FF80FF80FF80FF80F78BE
:105AB0000F781F7C3E3EFC1FF00700000000000036
:105AC00000000000000000000000FC3FFF3F1F3E00
:105AD0000F3E0F3E0F3E0F3E1F3E3F3EFC3FF03F4E
